:020000040001F9
:10B0000080390020D5B00100EFB00100F1B001009F
:10B010000000000000000000000000000000000030
:10B02000000000000000000000000000F3B001007C
:10B030000000000000000000F5B00100F7B00100C2
:10B040009DB40100F9B0010049B60100F9B001005A
:10B05000F9B0010000000000E1B20100F9B0010008
:10B06000F9B00100F9B00100F9B00100F9B0010038
:10B07000F9B00100F9B00100F9B00100F9B0010028
:10B08000F9B00100F1B40100F9B00100F9B001001C
:10B0900081B50100F9B0010089B50100F9B00100E6
:10B0A000F9B00100F9B0010000000000000000004C
:10B0B0000000000000000000000000000000000090
:10B0C0000348854600F0AEF8004800474DEE010009
:10B0D000803900200321094802680A4302600848B9
:10B0E00002680A4302600748804707480047FEE7B6
:10B0F000FEE7FEE7FEE7FEE7FEE70000240500406E
:10B1000054050040A9B50100C1B0010030B50B469F
:10B11000014600202022012409E00D46D5409D4231
:10B1200005D31D469540491B2546954040191546B7
:10B13000521E002DF1DC30BD00487047C02C0200CB
:10B1400003460B439B0703D009E008C9121F08C040
:10B15000042AFAD203E00B780370401C491C521EEB
:10B16000F9D27047D2B201E00270401C491EFBD2F6
:10B1700070470022F6E710B513460A460446194602
:10B18000FFF7F0FF204610BD421C0178401C00294B
:10B19000FBD1801A704730B504460020034600E01A
:10B1A0005B1C934203D2E05CCD5C401BF8D030BD09
:10B1B00003460A780270401C491C002AF9D118463F
:10B1C0007047F0B51FB40646002082B00546402403
:10B1D000019100901BE0019922460F46304600F095
:10B1E00043F8049A059B801A994110D310461946DA
:10B1F000224600F029F8361A8F4101972246012095
:10B200000021009F00F020F838184D4100902046A2
:10B21000641E0028DFDC019B00982946324607B0F7
:10B22000F0BD0000064C0125064E05E0E36807CCA2
:10B230002B430C3C98471034B442F7D3FFF744FF3C
:10B240005C2D02007C2D020010B5202A04DB014693
:10B25000203A9140002010BD914020239C1A0346C3
:10B26000E3401943904010BD10B5202A04DB084686
:10B27000203AD040002110BD0B46D340D0402024BE
:10B28000A21A91400843194610BD70B58C18057874
:10B29000401C6B075B0F01D10378401C2A1106D1BB
:10B2A0000278401C03E006780E70401C491C5B1EAF
:10B2B000F9D12B0705D40023521E0DD40B70491C65
:10B2C000FAE70378401CCB1A921C03E01D780D703E
:10B2D000491C5B1C521EF9D5A142D8D3002070BD79
:10B2E000F0B50024FF268BB00136012527460694D1
:10B2F000304604F007F9002807D054484068284237
:10B3000003D0304604F0F6F82C43361D6D007F1C48
:10B31000B6B2042FECD3FF257D35284604F0F2F8B1
:10B32000002809D0284604F0E5F86807044306AA77
:10B330000121002004F0CAF8454D200714D0012750
:10B34000002627420CD04348B20011180869096949
:10B35000C004C00E8903AA58890F002A00D0904764
:10B360007F00761C042EECD3002C6DDA00200890B0
:10B37000401E63E0281940300778B906890E009115
:10B3800000214156491C49D009A9009803F0CCFE80
:10B39000002843D0B8090190009801F0DDFE80003C
:10B3A0002F580198002F02D0032802D00DE0032867
:10B3B00034D1009808ABC20841079446985C490F05
:10B3C00001228A40104362469854009805210907DB
:10B3D00080004018072109024018006806A9800370
:10B3E000800F0290009803F09FFE0028029802D080
:10B3F000022802D012E0032810D10198032808D1B6
:10B40000029802281ED00221009804F042F8761C0F
:10B41000F6B2002F02D001990098B847641C042CA2
:10B42000A8D3002E10D06A460121002004F04EF867
:10B4300006990098884207D006900898002634465E
:10B44000099097E70321DFE70BB0F0BD00630040F0
:10B45000D8280020006500408307FF22DB0E9A40B9
:10B460008907090E994000280BDA0007000F0838F9
:10B47000830808489B001818C36993430B43C361B2
:10B480007047830804489B001B18186890430843C2
:10B490001860704700ED00E000E400E0F8B5FF2020
:10B4A000013003F049FE002401250E4E0E4F002806
:10B4B00007D00E4804600120B0607D70002001F0CC
:10B4C0008DFEFF20053003F037FE002808D0074826
:10B4D000001D04600220B060BD70012001F07EFEFE
:10B4E000F8BD000000030040C42800200001004017
:10B4F00010B506490020086048608860C8600349AC
:10B5000040390860486006F0A5FF10BD40110140B9
:10B5100010B503480078002801D100F09FF810BD55
:10B520000831002070B50E461821484313491446CF
:10B530004518E86A1835002804D001280FD00228E1
:10B5400005D113E0284600F0BFF8A04201D2002444
:10B5500011E022463146284600F0F1F80BE028467B
:10B5600000F0B2F8A042F4D20446F2E73146284691
:10B5700000F0B5F80446204670BD000008310020F8
:10B5800010B506F0D9FE10BD10B506484068002879
:10B5900005D08047002801D000F080FD10BD03F0E9
:10B5A000F9F810BD2021002010B503F041F9002862
:10B5B00005D01F491D484860C8131E4988611E48B0
:10B5C000018CC9B201290BD1828C120708D1028DDE
:10B5D0001206120F042A03D1828D1206120F0AD00E
:10B5E000012921D1818C09071ED1018D0906090F7E
:10B5F0000A2904D007E0114A01219160F5E7828D04
:10B600001206120F05D00D290ED1808D0006000FF5
:10B610000AD10B480168012904D00A490160016878
:10B620000129FCD1C021416110BD0000DFFF07C02E
:10B6300000050040006C0040C00F00F00006004014
:10B6400000EC06407593000010B50249024806F070
:10B6500076FF10BD202900200020004010B5124CBC
:10B6600002202061606111A0A0611348E061012007
:10B67000400220620020A06260620CA1A164214609
:10B68000E0621039E16410212165A0656065E06524
:10B690000AA1E01DFFF78CFD09A12046FFF788FDF8
:10B6A0002020A07110BD0000083100205465726D8B
:10B6B000696E616C00000000F82E002052545400A6
:10B6C00053454747455200000269C1688A4203D882
:10B6D0008068401A801800E0501A401E7047F7B585
:10B6E000064682B000200090F46817463069A042F8
:10B6F00001D9051B02E0B168201A0D1AB0686D1E51
:10B70000001BA84200D80546BD4200D33D467068E4
:10B710002A4600190399FFF713FD00987F1B401973
:10B7200000900398641940190390B068A04200D1BA
:10B730000024F460002FD9D1009805B0F0BDF7B512
:10B74000C668174604468068851B6068BD4206D9F6
:10B7500080190199FFF7F4FCF019E060FEBD2A465C
:10B7600080190199FFF7ECFC01987E1B41193246C4
:10B770006068FFF7E5FCE660FEBD00000FB41CB595
:10B780000246002007AC00290BD0491E019100920F
:10B79000064B6A462146069800F034F8009A0021CC
:10B7A00011701CBC08BC04B01847000079BC010033
:10B7B00030B47446641E2578641CAB4200D21D462A
:10B7C000635D5B00E31830BC184702E008C8121F35
:10B7D00008C1002AFAD170477047002001E001C17A
:10B7E000121F002AFBD17047202804DA0121814072
:10B7F0000348014201D0012070470020704700003B
:10B80000FC06FFBCFFB591B00F460546002606E0DA
:10B8100025280AD0149A139990476D1C761C287815
:10B820000028F5D1304615B0F0BD00240094012168
:10B83000F34A029400E004436D1C2B780846203B39
:10B8400098401042F7D128782A280ED00221287873
:10B850000246303A092A15D8009A0A235A43303A48
:10B8600080180C436D1C0090F1E701CF0090002878
:10B8700005DA012040030443009840420090022072
:10B8800004436D1C28782E2815D1042004436878C1
:10B890006D1C2A280AD101CF6D1C02900BE0029981
:10B8A0000A225143303940186D1C02902878014615
:10B8B00030390929F3D928786C2810D006DC4C28B7
:10B8C0001AD068280ED06A2817D104E0742813D043
:10B8D0007A2812D110E00120400504430CE0012138
:10B8E000090501E0032109050C436978814203D170
:10B8F0000120000524186D1C6D1C287803906E280B
:10B900001ED00CDC632831D004DC00288AD05828F3
:10B9100011D1B2E064287BD069280CD178E073287B
:10B920002DD004DC6F2870D0702804D1A7E07528D2
:10B930006CD078286BD0149A13999047761C62E0EB
:10B940006002400F022807D003280AD00428386874
:10B950000AD006603F1D56E03868F1170660416066
:10B96000F8E738680680F5E70670F3E73878694647
:10B9700008740020487404A80390012003E038688C
:10B9800003900020C0433F1D61070FD5002101E057
:10B990000199491C029A0191914213DA8142F7DB25
:10B9A000019A0399895C0029F2D10BE0002101E0A2
:10B9B0000199491C01918142FADB019A0399895C42
:10B9C0000029F5D101990098139A401A0090214658
:10B9D000149B00F03BF901998019461807E0039881
:10B9E00003990078491C0391149A13999047019880
:10B9F000401E0190401CF2D12146149B139A0098DE
:10BA000000F014F986196D1C09E741E033E034E0D9
:10BA10000A200021049005916002410F022905D0FF
:10BA200001CFC2179446032905D007E0FF1DFF0888
:10BA3000FF0003CF06E000B2C2179446042902D1EA
:10BA400040B2C1178C4600226146944506DA0A4688
:10BA50000021404291418C462D2102E0210504D570
:10BA60002B216A461176012103E0E10701D0202154
:10BA7000F7E7019154E00A200BE0102009E01020C4
:10BA8000049000210420044308200591029003E063
:10BA900008200021059104906002410F022905D081
:10BAA00001CF00229446032906D006E0FF1DFF08BF
:10BAB000FF0003CF8C4603E080B2042900D1C0B25E
:10BAC0000021019121072BD50399702906D0049AF2
:10BAD0001021059B4A401A4305D00EE040216A46DA
:10BAE0001176012108E06146014306D030216A4603
:10BAF00011760399517602210191049A0821059B40
:10BB00004A401A430CD16146014301D1610707D570
:10BB100030216A461176012101910299491E029154
:10BB20000399582904D037A103910FA90F910DE073
:10BB300039A1F9E76146059B049AFFF742FB039B95
:10BB40008C469B5C0F9A521E0F9213706146014304
:10BB5000F0D10F9807A9081A20300390600704D588
:10BB6000012000048443029801E00120029003991F
:10BB7000884201DD401A00E000204118029001983F
:10BB800009180098401A0090E00306D42146149B3F
:10BB9000139A009800F05AF886190020049008E0E3
:10BBA00006A9085C149A139990470498401C761CC7
:10BBB000049001998842F3DBE0030CD52146149BE5
:10BBC000139A009800F042F8861904E0149A302085
:10BBD00013999047761C0299481E02900029F5DCC3
:10BBE00008E00F980F990078491C0F91149A139947
:10BBF0009047761C0399481E03900029F1DCFBE670
:10BC00000928010030313233343536373839616232
:10BC100063646566000000003031323334353637F6
:10BC2000383941424344454600000000F8B5044617
:10BC300000251E461746880404D405E03946202016
:10BC4000B0476D1C641EF9D52846F8BDFFB5044603
:10BC5000002581B01E46C80301D5302700E020270B
:10BC6000880404D505E038460399B0476D1C641E6E
:10BC7000F9D5284605B0F0BD4A68002A06D00A6802
:10BC8000531C0B6010704868401E4860704710B528
:10BC900000280CD000290AD002780B789A4206D1ED
:10BCA0000622401C491CFFF776FA002801D000202C
:10BCB00010BD012010BDF7B584B0064600251788D9
:10BCC000158020300290407B1446002806D03A466A
:10BCD0002146059800F052FE050009D1B0780028F1
:10BCE00023D0059886462088001DB84202D90C2032
:10BCF00007B0F0BD684679DF0028F9D1218803201C
:10BD00007246505420881921401C80B22080115462
:10BD100020887146401C80B2208041186846008807
:10BD200006F0A1FC218840182080F078002817D068
:10BD3000218803230A46F356C91C0598B942D6D870
:10BD40000221815421880122491C89B22180425458
:10BD50002188491C89B2218043542088401C2080BE
:10BD60007068002817D021880023C3560A46C91CD2
:10BD70000598B942BBD80221815421880A22491C66
:10BD800089B2218042542188491C89B221804354C0
:10BD90002088401C2080308900280AD0009430463A
:10BDA0000197062202210830059B06F0B5FC05002C
:10BDB0009ED1308A00280AD000943046019707228D
:10BDC00003211030059B06F0A7FC050090D1308BB5
:10BDD00000280AD00094304601971522142118300B
:10BDE000059B06F099FC050082D1306A002806D038
:10BDF0003B462246059901F059FA0500D8D1706AF0
:10BE0000002806D03B462246059903F0C1F80500FC
:10BE1000CED10298007B002807D03B462246304610
:10BE2000059905F0F5FE0500C2D13078002807D04D
:10BE30003B4622463046059903F0DEF80500B7D1AF
:10BE4000284655E7174A0021535C002B01D00122F8
:10BE500003E0491C0629F7D300221349012806D024
:10BE600002280BD0032810D0042818D112E04878FB
:10BE7000002803D0002A01D00120704788780028CC
:10BE800003D0002A01D002207047C878002801D0D2
:10BE9000032070470879002801D004207047002053
:10BEA00070470000312000207C22002010B50122C4
:10BEB0000221002000F086FF002801D0072812D1BF
:10BEC00007220221012000F07DFF002801D0072871
:10BED00009D100210A22084600F074FF002801D091
:10BEE000072800D1002010BD30B5A7B03C2101A823
:10BEF000FFF73FF90025684605710124847106218A
:10BF0000C1718482104806903C2110A8FFF731F9D6
:10BF1000022110A8017020211FA8FFF72AF918A8F4
:10BF2000C477FF202D302390B4202490074B1FAA04
:10BF300010A9009501A800F01DFA002801D000F01A
:10BF4000ADF827B030BD0000EA1F002045FA01001F
:10BF500010B5032000F01EFB002801D000F09EF871
:10BF600010BDF0B50F468DB0002116466D460F246A
:10BF7000621A825C6A54491C1029F9D328460D21A3
:10BF80001030FFF7F6F80020221A395C5219401CD5
:10BF900011740328F8D368464DDF0020211A49198F
:10BFA000203109783154401C0328F7D30DB0F0BD7F
:10BFB00010B5022000F092FD10BD000070B5002405
:10BFC000064D06E06968E000085C012103F048F9CD
:10BFD000641C28788442F5D3002070BDC020002066
:10BFE000F8B515460C460646052A01D20720F8BDCD
:10BFF00003F00EFA002803D103F0DCF90028F6D193
:10C00000104900204E600C70C8608D6008610E4DB4
:10C010000DE0E00069688019009181786A465170EE
:10C0200000780A4A694603F067F90028DFD1204604
:10C03000641EE4B20028ECD1054A0021024800F059
:10C0400039F8F8BDC0200020FC2B020089E1010076
:10C0500049D4010009A1012003F03AFC03F080FB60
:10C0600003F084FB0028FBD100BEBFF34F8F0A49C9
:10C070000848C860BFF34F8F00BFFDE74150505FD5
:10C080004552524F523A4552524F523A46617461AC
:10C090006C0D0A000400FA0500ED00E00EB5002169
:10C0A000029000916A4601910148FFF7D3FF0EBD4F
:10C0B00001400000094B5B68002B07D0002A07D025
:10C0C000002805D00068037C002B03D008207047AF
:10C0D000072070474174426100207047E42000202F
:10C0E000FFB507469007002581B01E46144600287C
:10C0F00025D1002C23D005F0EDFA3046114EF0602A
:10C10000304610300570457002998170446075604A
:10C11000357001240C487570240504600321142037
:10C12000FFF79AF909480460094CA7600321112020
:10C13000FFF792F96068B060002005B0F0BD0720FD
:10C14000FBE70000D420002080E200E000E100E0F6
:10C1500000150140FEB51F4B5B68002B30D0002856
:10C160002ED0052901D20720FEBD4369002B27D020
:10C17000437C012B26D00027029104460025694606
:10C1800016460D70684600F03DF801A806F0AEFABC
:10C19000002819D0012101700F494460496881606D
:10C1A000029907614661C16068460A490079487092
:10C1B0006846007800F044F806F000F92846FEBD15
:10C1C0000820FEBD0F46D7E768460425007800F03A
:10C1D00037F8F3E7E42000200015014010B50849C6
:10C1E000496800290AD0002808D04169002905D0F3
:10C1F00000210174022106F009F910BD082010BDCC
:10C20000E420002030B5EFF3108172B6094A54687B
:10C210000123002C04D00370002900D162B630BD88
:10C220005360054B1D68054C254015601C600022BD
:10C230000270F1E7F820002080E100E0FC06FFBC7E
:10C2400008494A68002A0CD000280AD1EFF3108070
:10C2500072B60A68044B1A6000224A60002800D1B6
:10C2600062B67047F820002000E100E0F0B5044617
:10C270008BB0008800F01EFB0590208802F0F8F9D2
:10C280000646A0680090657A684605741E4F2088AF
:10C290000022397800F05EFB0598002831D06079E3
:10C2A000400710D50721304604F06AF9002813D062
:10C2B000082269460A7422884A828E82069004A85F
:10C2C00001F0B2F908E02088B97800F031FB0028CD
:10C2D00002D0304602F0B6F9032168460171218888
:10C2E000C18060794007C10F68460172A07940079C
:10C2F000C10F6846417201788172C57201A801F0D0
:10C3000093F90BB0F0BD0000A4200020F0B50C465E
:10C3100093B01F216A4611800726002791800028CC
:10C3200009D0C17849070DD502A9FFF7C4FC002840
:10C3300009D102AD01E000251780002C0ED0E07875
:10C34000002802D0304613B0F0BD01AA0AA9204649
:10C35000FFF7B1FC0028F6D10AAA02E068460022E5
:10C36000878068468088C3B268460088C1B2284684
:10C3700072DFE8E7FFB581B01E460A9F134604004E
:10C3800047D0002B45D0504D012028700020E87088
:10C39000202219464D48FEF7D3FE00206F61C043AE
:10C3A0002E612881284607211830FEF7E2FE474813
:10C3B0003C212030FEF7DDFE44482178203001701A
:10C3C000A1788170E178C170617841703F4A6569F8
:10C3D00023695563114613632031E368A268CB607B
:10C3E0008A603A49E369A269CB638A63616A00297A
:10C3F0001AD001463C310246483241628A60636A83
:10C400001B880B80616A436A898899800021436A8E
:10C4100007E00E2005B0F0BD656AAD686D5C55544F
:10C42000491C9D888D42F7D8A16A00291CD0274A53
:10C43000943211460C398A608162A36A9B888B8092
:10C44000A16A836A098819800021836A04E0A56AC9
:10C45000AD686D5C5554491C9D888D42F7D82C21E0
:10C460000A5D1A4940310A73216A002909D0164928
:10C470000A310162226A52884A80216A026A098866
:10C4800011806168002900D04160104A0E490020E7
:10C49000B3322031C3001B1A85009B180C68401C66
:10C4A00063510828F6DB094A0020EB3203018500BE
:10C4B0009B188C68401C63510828F7DB03480299DD
:10C4C0002030FFF723FFA5E7182000207C22002062
:10C4D00010B50188134C102915D0112919D01B292A
:10C4E00010D1007A00280DD1E0780521401CFEF71C
:10C4F0000DFE084600F04EF8002803D061690029BF
:10C5000000D0884710BD817D0129FBD18088208122
:10C5100010BD00216171808821898842F8D10120F5
:10C52000E8E700001820002010B5022801D00328F9
:10C530000ED1084C607800280AD000206070E078A6
:10C5400000F028F8002803D06169002900D088474E
:10C5500010BD00001820002010B574DF0B4C012026
:10C5600060710B490620C87000210948FFF7CEFE14
:10C57000002809D1E07800F00DF8002803D06169A7
:10C58000002900D08847002010BD0000182000209E
:10C590009C220020F1B53F4C88B0207800280AD0BA
:10C5A0000898E07006A801F03BFB069801250028DA
:10C5B00004D065706AE0082009B0F0BD3548002756
:10C5C00007211830FEF7D5FD334E7078002802D0D1
:10C5D000E078012807D0B07800280CD0E078012856
:10C5E00001D0022807D12169002903D02571082034
:10C5F000884700E027710898FFF724FCE070216964
:10C60000002909D0032801D0042805D1307800285A
:10C6100002D06079002811D0A77118216846FEF772
:10C62000A8FD684607700772E1781A480B001830B9
:10C63000FFF7BEF8052E080F191D2000A571072071
:10C640008847EAE7A570019068460570478207822F
:10C6500013E00221A170019068460570B189418202
:10C660003189018209E0684605F01AFB02E068465C
:10C6700005F042FBE078002803D0684673DF00280D
:10C680009AD12169002901D0A0788847002093E73A
:10C69000A770F6E7182000207C22002070B5054620
:10C6A00001461C220E48FEF74BFD0E4C002626705C
:10C6B0002968002906D00822201DFEF741FD201D13
:10C6C0007ADF02E00748001D7BDF002807D1401E0B
:10C6D00060806670044A00210448FFF7EBFC70BDDF
:10C6E000482400204820002071260200742B0200FC
:10C6F000F8B5214C0146028800261E48E589102A1B
:10C7000013D01E4F112A1FD0122A2BD0502A1AD113
:10C71000881DC988A94216D14189022913D10C303C
:10C7200000F087F900280CD112E08A880446428084
:10C73000104808220C301831FEF702FD6670002DFB
:10C7400001D100F0FBFDF8BD0021C94341804670D6
:10C750003868FFF743FD0028F5D0A1690029F2D021
:10C760008847F8BD034808220C300831FEF7E8FC82
:10C77000E7E700004820002048240020742B020036
:10C7800010B503490A7D091D05F079F810BD0000B8
:10C7900064240020034B10B50246D97D181D05F016
:10C7A0005BF810BD64240020034B10B50246197ECF
:10C7B000181D05F051F810BD64240020F0B50446A2
:10C7C00002883A488DB0014615310191102A09D0EE
:10C7D000112A50D01A2A4AD1217A090901294ED9A1
:10C7E00001234DE0027D417D05468A43011D07A8D6
:10C7F00005F045F8142207A902A8FEF7A1FC0026BF
:10C800002A483746143008900AE0710002A8081838
:10C8100083881D220097281D089904F0DDFF761CEF
:10C820000298B042F1D8287DA688C043C0B204F077
:10C83000F7FF1F49884217D0400040198680012326
:10C840003246281D019905F03DF801233246281D86
:10C85000089905F037F8A07D02280AD00023134973
:10C86000A2881631281D1DE00420FFF717FC0DB02B
:10C87000F0BD0123F3E70023A288001D12E000238E
:10C880000A490546A2881731001D05F01BF8207AD9
:10C890000009022801D9012300E000230349A288EE
:10C8A0001831281D05F00EF8E1E70000642400208F
:10C8B000FFFF000070B50B4E05460024317D2A466F
:10C8C000301D04F0C9FF002809D0B17D2A46301D73
:10C8D00004F0C2FF002801D0022400E00124204619
:10C8E00070BD00006424002010B50024204605F02F
:10C8F000F1FE002805D0641CE4B2182CF6D31820F1
:10C9000010BD044801220168A24011430160204685
:10C9100010BD00006424002010B5044605F0DAFEC6
:10C92000002802D001480019407E10BD6424002078
:10C9300070B505460C46084605F0CCFE002806D02A
:10C9400003482A460119497E001D04F085FF70BD89
:10C950006424002070B5064615460C46084605F0CE
:10C96000B9FE002807D004482B4601193246001DA5
:10C97000193104F0A7FF70BD642400207CB5054682
:10C9800008880C460930904201D90C207CBD6846CD
:10C9900071DF0028FAD121880820685420881B21E3
:10C9A000401C80B220802954208800A9401C80B2FD
:10C9B0002080401906220131FEF7C2FB208869461B
:10C9C000801D80B220800978002900D001212954DF
:10C9D0002088401C208000207CBD000010B504464B
:10C9E000FFF7ECFE204604F0D1FA2046FFF780FE68
:10C9F000204600F0FDF8204603F060F82046FFF7DF
:10CA000067FD2146014800F003F810BD0822002010
:10CA100010B50A88102A06D0112A06D0502A01D152
:10CA200003F0C0F810BD898801E00021C9430180EE
:10CA300010BD4178027808021043C007C00F70474C
:10CA400000B5174887B000680590002348221549B3
:10CA500005A805F02DFC002801D0FFF71FFB6A4652
:10CA60000121002005F00CFC002801D0FFF716FB87
:10CA7000684605F0B3FB002801D0FFF70FFB0A481A
:10CA800005F0A2FB002801D0FFF708FB074805F0DE
:10CA900041FC002801D0FFF701FB07B000BD0000FA
:10CAA000302B0200C0210020DDC901002923020033
:10CAB0000149085C70470000562B02000549095CDB
:10CAC00005480069C840C007C00F00D001200121FF
:10CAD00048407047562B02000005005005490B5C8A
:10CAE00005494A6801209840034693438B601040F3
:10CAF000C8607047542B02000005005010B5034970
:10CB0000085C002102F0D6FC10BD0000542B02008E
:10CB100010B50349085C012102F0CCFC10BD0000F7
:10CB2000542B02000449095C04484068C840C0070F
:10CB3000C00F00D001207047542B020000050050A8
:10CB40007CB50024074E2546305D01220095002368
:10CB50001146019502F064FC641C022CF4D300F031
:10CB600003F87CBD542B020010B500242046FFF7CB
:10CB7000C5FF641C022CF9D310BD10B5002420465B
:10CB8000FFF7C6FF641C022CF9D310BD024600203B
:10CB900010B5C043054B00215C5C944201D10846AE
:10CBA00010BD491C0229F7D310BD0000562B02000E
:10CBB00070B50E4E00250C46306000290DD00120C6
:10CBC00000F0ACF8002801D0022005E0002000F0C1
:10CBD000A5F8002800D00B2020707068002802D132
:10CBE000FFF764F90546284670BD000010200020BC
:10CBF00010B51C4C0188606810290DD011290AD18C
:10CC0000401E606007D1FFF751F9002803D021686A
:10CC1000002900D0884710BD00281ED10021012224
:10CC2000084600F0CFF8002801D0072811D10722CC
:10CC30000221012000F0C6F8002801D0072808D101
:10CC400004220221002000F0BDF8002805D00728AA
:10CC500003D02168002900D088476068401C6060CC
:10CC600010BD00001020002010B5002000F0E8F9F1
:10CC7000002801D0062807D1012000F0E1F90028A2
:10CC800001D0062800D1002010BD0000F3B581B00E
:10CC90000D460198FFF77AFF0446022814D21E4F72
:10CCA0001C483E46143E002D27D0012D0DD0022DEC
:10CCB0000AD160002018C0194578002D04D03169D0
:10CCC000002901D028468847FEBD610061187D5CBF
:10CCD000CF19797800290BD0B1680A2251430E4A46
:10CCE0008068123AFFF736FA002801D10198B07037
:10CCF0000948B97811380155DFE78068FFF76EFA07
:10CD00000548610061181138C919005D8D78A84285
:10CD1000D3D0FEBD582B02000820002010B5FFF72D
:10CD2000CDFE10BD014610B517480A2911D011DCFF
:10CD300015480429008823D007290AD113498842BD
:10CD400007D1FFF709FC082803D0002801D0FFF71E
:10CD5000A5F910BD0E290ED00F29FAD18168491E00
:10CD600081600BA1032002F0B3FD07490E48083192
:10CD700002F0E0FF10BD8168491C81600BA1F1E762
:10CD8000132176DFDFE70000E81F0020FFFF00002F
:10CD90004150503A494E464F3A4B45593120507216
:10CDA00065737365640D0A00082200204150503AF3
:10CDB000494E464F3A4B4559302050726573736562
:10CDC000640D0A0070B50023022811D24400041932
:10CDD0000D4D012A02D101290DD0002246008019F3
:10CDE000094E801900290CD0012906D0022906D04D
:10CDF0000723184670BD0E30C2B22A55F9E74270BB
:10CE0000F7E78270F5E700000820002010B5054A1A
:10CE10000146127B0020D20702D0084600F050F8ED
:10CE200010BD0000F41F0020F8B506461F4800247E
:10CE3000C660026181600F46B00720D5002501223F
:10CE400011462846FFF7BEFF6D1C0446022D02D294
:10CE5000002CF4D013E0002C11D17A0802211448E0
:10CE6000FFF7BEF804000AD1FFF7A8F8040006D1C6
:10CE70000F48104A0021001FFFF71CF90446F00775
:10CE800001D0FFF75DFE002C0ED109480A4A0021AF
:10CE90000C38FFF70FF9040006D10548074A0121B5
:10CEA0000838FFF707F904462046F8BDF41F0020B4
:10CEB000642B0200E9D001009DE80100B1BF010030
:10CEC000F8B55D4C054660780026002803D00020A8
:10CED0006070FFF749FE0120584F2B00FEF768FCF9
:10CEE00018970D0D2E3D4A5F64686F686FA97777BC
:10CEF000777777979A9DA0A9A9950020FFF712FE52
:10CF000000280AD00020FFF7F9FD022D02D1E12010
:10CF1000C0000BE07D20400108E00020FFF7F8FD95
:10CF2000022D01D1C82001E0FF209130257064213D
:10CF3000FEF7ECF8A168414300222BE00020FFF748
:10CF4000F1FD002805D00020FFF7D8FD1920400191
:10CF5000ECE70020FFF7DCFDE4E70020FFF7E2FD4F
:10CF6000002803D00020FFF7C9FDD3E70020FFF71A
:10CF7000CFFDD9E70020FFF7D5FD002803D0002022
:10CF8000FFF7BCFD02E00020FFF7C2FD2570A0689E
:10CF9000410000223868FFF7DDF8064635E0002042
:10CFA000FFF79CFD257007E000203FE025702CE096
:10CFB00060700120FFF792FD0022A168EAE760702F
:10CFC0000120FFF78BFDA06881004118E1E7786838
:10CFD000FFF704F906461120401B01D0002E03D0B4
:10CFE0000220FFF78BFD10E001280BD9C821484330
:10CFF0006421FEF78BF8A168002241437868FFF7AF
:10D00000A9F806460220FFF783FD3046F8BDFFF77A
:10D01000ABFDCBE7FFF7A8FDC6E7FFF7A5FD04E0F2
:10D02000FFF7A2FD0020FFF773FD0120FFF770FD61
:10D03000BCE7FFF7A2FDB9E7F41F0020582B020060
:10D0400010B5FFF735FD032102F012FA002010BDE4
:10D05000002901DA002070470268511801600120A0
:10D0600070470000F8B50D46461C00206946087060
:10D0700001246846FFF7C6F8134A10682860116853
:10D0800050689368081A1D1A701C6D1CA84212D9AA
:10D09000002D0ED00D480E4C0088246880051940E4
:10D0A000800DA402890020438918C8601068401CC4
:10D0B0001060002401E08819106068460078FFF7CE
:10D0C000BFF82046F8BD0000E02A0020182C02001E
:10D0D0001C210020034803C8814201D10120704770
:10D0E00000207047E02A002010B500780221FFF7E9
:10D0F000CDFD10BD0022D243830004490428CA504C
:10D1000002D308182030027770470000D82800208A
:10D11000F0B50025ED43002A02D00023042601E0EB
:10D12000042308260B4C04E09F00E7597F1C04D021
:10D130005B1CB342F8D32846F0BD26185DB22036FA
:10D1400035709E00A151002AF5D1E11820310877F1
:10D15000F1E70000D82800200249091820200856CD
:10D1600070470000D8280020002807D004498142D9
:10D1700004D80449814201D901207047002070473A
:10D180003821002048210020044A0168914201D042
:10D19000083101E00149383901607047382A002020
:10D1A00070B50D4D04460A462846AC4208D1FF240E
:10D1B00001342146104603F0A7FEA0420AD070BDFC
:10D1C000FF2CFCD82146104603F090FE002801D029
:10D1D000204670BD284670BDFFFF000070B5084CAA
:10D1E000050009D010342168002907D008682060A4
:10D1F000496828468847F6E70834F4E770BD000020
:10D20000C4280020F8B52348416800293ED00E68A4
:10D2100021494C6887688078E11B0D022D0AED1CBE
:10D22000002814D101201D4A000450601B4A403AD6
:10D2300050601B49400008601A4908601A490120E3
:10D2400008602F2001F080FF124901208870B5424C
:10D2500000D23546E81900020F4B000A403318602F
:10D260000D4A5168001B091B0902090A0002000A45
:10D27000C91C814209D9506818602F2001F064FF51
:10D2800001200749400480390860F8BD04F022FA03
:10D29000F8BD0000D42000200015014040130140DB
:10D2A00080E200E000E100E000100140F8B5064631
:10D2B000108814468446801D0D46984201D90C20E2
:10D2C000F8BD32880720062AFAD31927FF01184B28
:10D2D000BA4201D99A42F3D171880629F0D3B942F2
:10D2E00001D99942ECD19A4203D0994201D08A42A5
:10D2F000E6D805216046295420881221401C80B2BE
:10D30000208029542088401C80B220804119308818
:10D3100005F0A9F92188401880B220804119708851
:10D3200005F0A1F92188401820800020F8BD0000F8
:10D33000FFFF000010B5FEF7B1FE10BDF8B51648AE
:10D3400001F068FA144D00260C3D144C002807D05B
:10D35000616900291CD001206A461070684616E0F9
:10D360002878002805D06169002911D06846067028
:10D370000DE0687800280DD0A168094800220068F7
:10D38000FEF7E8FE002803D0A169002900D08847F5
:10D390002E70F8BD6168F0E754200020482400207A
:10D3A000742B0200F0B585B00C46002802D0012095
:10D3B00005B0F0BD207900270126002806D01F4DBA
:10D3C000012820D002282CD00F20F1E702970397E4
:10D3D000E0680190694601A804F0A6F800280ED084
:10D3E00002988188E18000882081029804F016F973
:10D3F000694609880A01124951188E7300E00A2013
:10D4000002212171D4E70F4B6A460021A01D04F0D0
:10D4100049F8002807D00B4908398F60CF600A28E7
:10D42000C6D12846C4E7019804F0F8F80549898870
:10D430000A01034951188E73F1E700001D1D000019
:10D44000482A002008210020F8B500260124154DA7
:10D4500023E06968F0004718387821462A6981403E
:10D46000114218D08A432A6101F09AFF3A78214686
:10D47000EB68914019400346934099420BD179786B
:10D48000012901D0012100E000217B684140002BEF
:10D4900001D010469847761CF6B228788642D8D339
:10D4A000F8BD0000C020002010B50E4900230A7806
:10D4B0004C78A24212D0521CD2B20A70022A00D179
:10D4C0000B700A78074B920018339A5802608868EC
:10D4D00010180002000A8860012010BD03600020BF
:10D4E00010BD0000D42000203EB5094D38CD00937A
:10D4F000029501946B46588099809A7105490022E3
:10D500000978FFF727FA684600F08EF83EBD000064
:10D51000E82B0200A420002010B50478002223008C
:10D52000FEF746F9070605070D1D262C06000A70B2
:10D5300010BD01220A7002898A81828814E00222C9
:10D540000A7002898A818288CA81C2688A60007CE6
:10D55000062802D00020087410BD0120FBE703223A
:10D560000A70C2888A810289CA81C068886010BD39
:10D5700004230B70C0888881CA8110BD0520087003
:10D5800010BD000070B5064D06460024A0002958C5
:10D59000002901D030468847641C082CF6D370BDA2
:10D5A000682900200EB5002910D011290ED00022C4
:10D5B000009202926A46508001910D2907D0862977
:10D5C00007D009201070104600F03CF80EBD0B206B
:10D5D000F8E70A20F6E7000001490968084700005B
:10D5E0006420002070B5054D06460024A00029588F
:10D5F00030468847641C022CF8D370BD902B020083
:10D60000F8B507460024064E064D04E0A000315848
:10D6100038468847641CE8788442F7DBF8BD000090
:10D62000782800209420002070B5054D064600247F
:10D63000A000295830468847641C022CF8D370BDDE
:10D64000B02B02000149096808470000F42B0200D2
:10D650007FB50446406800280BD000200390207856
:10D660000026414D0300FEF7A3F8066D0606304E76
:10D670007B6D0120F2E7A08900F0DCF9002804D1DD
:10D68000E08903F0E3FF00285CD0A08900F0CCF92A
:10D69000014668464180E08903F0D2FF01466846B2
:10D6A000017120780128606807D0002809D0042083
:10D6B000694608706068039020E00028F8D00320D5
:10D6C000F6E70120F4E708463AE0A08900F0B2F955
:10D6D000002804D1E08903F0B9FF002832D0A089E6
:10D6E00000F0A2F969464880E08903F0A9FF694685
:10D6F00008716068002804D005200870A0680290B6
:10D70000E1E70220F9E7A08900F094F9002819D098
:10D71000E089002816D1A08900F086F96946488082
:10D72000E08903F08DFFFF206946087160680028DA
:10D730000FD0072008706E70AE7003F0FBF86846DB
:10D7400002F0B6FF6878002802D06E7003F0F2F89D
:10D750007FBD062168460170408803F079F9EAE749
:10D76000082069460870AEE78020002000B5104907
:10D7700087B00978890702D4022007B000BD0D499F
:10D78000884201D10420F8E7052269460A70012287
:10D790000A71C88000221146684602F08FFA0028FC
:10D7A00003D003F05BFE0020E7E70820E5E7000078
:10D7B00000210020FFFF000000B50F4887B000786F
:10D7C000800702D4022007B000BD06206946087019
:10D7D00000221146684602F071FA002809D0074875
:10D7E0000178002901D00121017303F037FE0020E8
:10D7F000E9E70820E7E7000000210020682A002070
:10D8000000B58DB014216846FDF7B3FC1E480078C2
:10D81000810703D56846FFF7B5FE32E0C00730D177
:10D82000012000F02DF900F0A5F902F039FC0028E4
:10D830000ED006280FD001216A4611750300FDF7AE
:10D84000B7FF0C19111911191819181913161319F2
:10D850000B200DB000BD022000F012F9012000F0F5
:10D86000F5F8D7E7002000E00320107602E0022060
:10D87000FBE711760022114605A802F01FFA03F01B
:10D88000EDFD0020E5E700000021002038B5040090
:10D8900014D0694603F048FE002813D0684600887B
:10D8A0000101094809188889002809D0A27A002AAC
:10D8B00006D0401E88810020A07238BD052038BDEA
:10D8C000062038BD0A2038BD482A00201FB501A90E
:10D8D000684603F0E7FD04B010BD07B513460A46DD
:10D8E0006946002003F0DEFD0EBD07B513460A466B
:10D8F0000021684603F0D6FD0EBD002805D00029A2
:10D9000003D00068086000207047052070470000C1
:10D9100038B50D46040017D0002D15D0694603F028
:10D9200003FE002812D0684600886168020108489A
:10D9300012189089401C9081296060680C306860E2
:10D940000120A072002038BD052038BD0A2038BD56
:10D95000482A002010B5002804D00323002204F038
:10D96000B5FF10BD052010BD10B50223002204F044
:10D97000ADFF10BD10B5002A03D0022304F0A6FFAE
:10D9800010BD052010BD000010B5064A51780829C9
:10D9900006D08B00044C491CE0505170002010BD93
:10D9A0000C2010BD002100206829002038B5044655
:10D9B0000A480D460078800701D4022038BD002CAB
:10D9C0000AD06946284605F08DF80028F6D1694648
:10D9D00009882180658038BD052038BD00210020E0
:10D9E00010B504460E480078800701D4022010BD0F
:10D9F000002C10D0218802290FD80A4A080180186B
:10DA000042896088121A032A07D405F061F80020C1
:10DA10002080608010BD052010BD042010BD0000D6
:10DA200000210020482A002003218903401A80B2E7
:10DA30007047000003218903401A0349884201D836
:10DA40000120704700207047FE3F000002490A781D
:10DA500082430A70704700000021002010B5044680
:10DA60000078182802D1FEF73FFF207010BD10B5D6
:10DA700004460078182802D1FEF736FF207010BD4A
:10DA800002490A7802430A70704700000021002012
:10DA900070B5064600200546862906D0112902D019
:10DAA000002903D070BD012500E001200E4C002AA2
:10DAB00002460FD061793046FEF74CFF2A462179A5
:10DAC0003046FEF747FF002261783046FEF742FFFE
:10DAD000002204E061783046FEF73CFF2A462178B8
:10DAE0003046FEF737FF70BDA8200020F8B5064687
:10DAF0001C481F46007815460C46C0070AD0304621
:10DB0000FFF732FB002807D0002C07D0A00507D074
:10DB10000620F8BD0120F8BD0220F8BD0320F8BDA5
:10DB20003068A04204D8A80271680019884201D95F
:10DB30000520F8BD002D10D0684603F0E1FB002859
:10DB40000DD000980221C0C00170A101090C818094
:10DB5000058103F091FC0020F8BD0420F8BD0720EA
:10DB6000F8BD00001821002010B5084603F0E4FBC2
:10DB700010BD0000F0B52648264C001B03092648BE
:10DB800019464069421C03D1012000074069800208
:10DB9000224A12789646D2070CD00020F0BD1D4CC8
:10DBA00015012C192568002D03D06468002C00D0C5
:10DBB000491E521C9A42F2D3002420E0E2B2002512
:10DBC00094462A460FE0134E1701BE193768002FFE
:10DBD00002D07768002F05D1767BAE4202D9354658
:10DBE000D6B2B446521C9A42EDD362461501094A98
:10DBF000AA185060157BAD02401B641C10608C425B
:10DC0000DCD306487146012211430170C5E70000CC
:10DC10004821002038210020001000101821002089
:10DC2000002804D00349496E01600020704703209A
:10DC300070470000782A0020F8B507461E481E46A7
:10DC4000007815460C46C0070ED03846FFF78CFA10
:10DC500000280BD0002D0BD0002C09D028462043E3
:10DC6000800707D00620F8BD0120F8BD0220F8BDCE
:10DC70000320F8BD3868A04204D8B10078680919BB
:10DC8000884201D20520F8BD002E11D0684603F06D
:10DC900037FB00280ED000980699076041600121EB
:10DCA0000172C5600461868203F0E6FB0020F8BDC6
:10DCB0000420F8BD0720F8BD1821002070B5174BCF
:10DCC0000446186E182148431549C0180A7895076C
:10DCD00015D5022C02D0032C1CD102E001F0C4FFA8
:10DCE00018E04A78521CD2B24A70032A12D9002294
:10DCF0004A70082103F0B8FE03F0ECFA0AE050077E
:10DD000008D5FB2002400A70586E002802D002207D
:10DD100002430A7003F06CFB70BD0000782A0020FB
:10DD20001821002070B5002801D0012070BD164CCC
:10DD30000025207B002801D0257301E000F09CF82D
:10DD400020780300FDF734FD081E05080B0E1E1198
:10DD50001A1E00F01BF870BD00F07EF870BD00F0D8
:10DD600061F870BD00F038F870BD608806490001A8
:10DD700020394018406802F073F970BD656002F008
:10DD80007DF970BD0F2070BD682A002070B5104964
:10DD900000208A1C0D460346203D0C18A67A002E52
:10DDA00008D0A37204016419A689002E02D1A47BB5
:10DDB000012C08D0401C80B20228EED30B704B809F
:10DDC00004484B6070BD108000F046F870BD000044
:10DDD000682A00201D1D000010B50F4C608801014D
:10DDE000204620380818818900290BD00520207092
:10DDF0000A48022181800168002301220848FFF7B8
:10DE000075FE10BD4168002301220548FFF76EFE34
:10DE10000421217010BD0000682A0020102100207C
:10DE20003821002038B50A4908480B6889884268BB
:10DE3000890059185388032404700020DB1C0090CB
:10DE40009BB20448FFF7F8FE38BD0000682A0020A6
:10DE5000102100203821002010B506494888091DEE
:10DE600003F0B2FB002802D0FFF7DCFF10BDFFF784
:10DE7000B3FF10BD682A0020F0B51D481D49077882
:10DE80000246012502268C88203A3B00FDF790FCD3
:10DE9000080517171A212C2C16170189491C018116
:10DEA0000021418001730B01D35C002B08D00023BB
:10DEB0004418491C89B2A3720229F4D30570F0BD3D
:10DEC0000123F5E742685288D21CA2188A800670A6
:10DED000F0BD45880B682D01AA1855680D60536088
:10DEE00014818E80062100E007210170F0BD000042
:10DEF000682A002010210020F0B504460088384D23
:10DF00008DB050281DD0522802D0542826D103E0CD
:10DF1000A08800F009FF21E0062069460870A0886B
:10DF200000F0A6FB69464880A2888A8000F054F978
:10DF3000A0880022E978FEF70DFD6846FFF74CFB4C
:10DF40000CE0207B012809D1A07A012806D1208984
:10DF50002449884202D1A08800F022FFA878FEF769
:10DF6000DBFC002819D008A8FEF70AFC142208A937
:10DF700003A8FDF7E5F8002403AE0BE06000871965
:10DF8000B888A978FEF7D4FC002802D0B88800F041
:10DF9000CBFE641C0398A042F0D86878FEF7BCFC66
:10DFA000002819D008A8FEF7EBFB142208A903A843
:10DFB000FDF7C6F8002403AE0BE060008719B888AF
:10DFC0006978FEF7B5FC002802D0B88800F0E8FEBA
:10DFD000641C0398A042F0D803F080FD0DB0F0BDA2
:10DFE0005C200020022900003EB5044640886946B6
:10DFF00048802078002814D001281DD002280FD195
:10E00000207900280CD0608800F066FA0E4988421A
:10E0100006D00E490122C978FEF79CFC03F05EFD94
:10E020003EBD002008700846FFF7D6FA608800F071
:10E0300053FA00F079FE3EBD012168460170A188C7
:10E040008180FFF7C9FA3EBDFFFF00005C20002081
:10E0500010B50446007801280DD1608800F064FEF8
:10E06000608800F07DF9002805D00349608801220E
:10E07000C978FEF76FFC10BD5C20002010B5104C75
:10E0800000202070FEF730FC6070FEF72DFCA070C1
:10E09000FEF72AFCE070FEF727FC20716178182952
:10E0A0000BD0A178182908D0E178182905D01828B4
:10E0B00003D001202070002010BD032010BD0000FF
:10E0C0005C200020F0B585B000F09EF86846FEF7B1
:10E0D00057FB00246D460C4F0EE060004619B088D7
:10E0E00000F0C6FAB84205D10849B0880122C978C3
:10E0F000FEF730FC641CA4B20098A042EDD803F0F7
:10E10000EDFC05B0F0BD0000FFFF00005C2000202A
:10E1100010B50178072902D1408800F041FE10BDFA
:10E1200010B504460A4841782046FEF701FC002855
:10E130000CD0084800210C224A4312185288A242EF
:10E1400001D1C8B210BD491C0829F4D3FF2010BD6D
:10E15000742000209824002070B5094D094E002439
:10E160000C206043401940887178FEF7E1FB0028DD
:10E1700004D0641C082CF3D3FF2070BDE0B270BD46
:10E180009824002074200020F8B50746104E012581
:10E19000BD403068FEF722F800280DD10D4C2069F3
:10E1A000284207D1384601F0FBF80028E06804D087
:10E1B000284303E0A8432061F8BDA843E06020693C
:10E1C000002228432061A1683068FDF7C3FFF8BD35
:10E1D000FC2B0200C02000201CB5054A9168D268C3
:10E1E000019200910022694602F02AF91CBD00004C
:10E1F0007C2B020003480021C9438180012101706A
:10E20000002070476820002010B5044802F04CF848
:10E210000349888003F08EFC10BD0000FFFF000062
:10E2200068200020F1B582B0029800F021FA0024A5
:10E230001649032501272646884209D06A46082147
:10E2400002F0D4F8002803D1019886880568841D5F
:10E250002B46324621460298A9DF042804D008281C
:10E2600004D00B2807D002E0112000E00020002F8E
:10E2700000D10B20FEBD0027A80701D50125E7E747
:10E280003443F6D0002426460325E1E7FFFF0000D3
:10E29000F1B582B0029800F0EBF907461B488742BF
:10E2A00001D11B48FEBD01252A466D1C0026ADB2DA
:10E2B0006B460821384602F0C9F8040002D0072C4A
:10E2C00021D021E0019903230B600A1D891D0298CA
:10E2D000AADF040004D00C2C08D0052C08D008E0DC
:10E2E0000821384602F04CF904460DE0012600E012
:10E2F00000240821384602F02DF9002800D003241C
:10E30000002ED1D100E00C242046FEBDFFFF00000E
:10E31000023000001FB504460078012813D120798F
:10E32000012810D1608802AA012102F05FF80028BC
:10E3300009D1022168460170618841800121017183
:10E340000549096888470448044908388088884294
:10E3500001D003F0EFFB1FBD70200020FFFF000085
:10E360001CB500F085F96A46012102F03FF800284B
:10E3700001D000201CBD019800781CBDF8B5074EE7
:10E38000074C084D0746324661883846A7DFA84249
:10E3900003D16088401C6080F5E7F8BDFFFF0000F6
:10E3A00068200020033000008188054A914204D093
:10E3B0000088002801D0012070470020704700002D
:10E3C000FFFF00003EB5044600780D46022815D137
:10E3D0000322611C6846FCF7B3FE0322211D02A83C
:10E3E000FCF7AEFE01AA02A92846FDF7BAFD0322FA
:10E3F00001A96846FCF7CFFE002801D000203EBDF1
:10E4000001203EBD10B50C46FFF78AFEFF280AD05A
:10E410000C2148430549072241182046091DFCF7F5
:10E420008FFE002010BD052010BD000098240020A4
:10E4300070B5018890B0102949D1011D2C2202A885
:10E44000FCF77EFE6846234E007B344602AD03286F
:10E450002AD002F09DF96846007B00280ED00128E2
:10E460000CD0022820D118E00E99281D1131FDF79B
:10E470000EFC002802D06846048815E00DAA694603
:10E48000072002F05BF90028EED10DE00E99281D5F
:10E49000491CFFF797FF0028EDD10DAA6946072018
:10E4A00002F04CF90028F1D168460089291D00F0DE
:10E4B000F3FDB4420BD068460089214600F086F88F
:10E4C00068460189418001210170FFF78BF810B087
:10E4D00070BD0000FFFF0000084A00210C234B43E1
:10E4E000D35A834204D10C20414388184088704796
:10E4F000491C0829F2D302487047000098240020E4
:10E50000FFFF000010B50E4C182060700D4A0E4938
:10E5100000200C2343435B18401C5A800828F8D382
:10E52000FEF7E2F96070182804D00548C01C71DFBE
:10E53000002801D0032010BD01202070002010BD54
:10E5400074200020FFFF00009824002070B50446CE
:10E550000D46401C00F090F9002810D01022691CD4
:10E56000601CFCF718FE00280AD000262946204629
:10E5700011311130FDF78BFB01463046084370BD69
:10E580000126F3E70188002903D142189278002A76
:10E5900001D001207047491C0829F6D3002070479C
:10E5A00010B50C460346FFF7EDFF00280BD0188886
:10E5B0002188884206D10822A11C981CFCF7EBFD9B
:10E5C000002801D0002010BD012010BD10B502F0C0
:10E5D0009BFA10BD10B50446007888B0002826D1FB
:10E5E0002079072823D1608801AA072101F0FEFEC7
:10E5F00000281CD102F0CCF81BE06946608809882D
:10E60000884216D004990298FFF7A0FF002810D086
:10E610006088FFF761FF01466846C18200210175ED
:10E62000618801830188418305A8FEF7DBFF08B0FC
:10E6300010BD03AA6946072002F080F80028DCD14B
:10E64000F5E7000070B50446FFF746FF0546204693
:10E6500001F0D1FE054904468D4204D0002C02D1C0
:10E66000284602F051FA204670BD0000FFFF00006E
:10E6700010B5FFF755FDFF2804D00C21484302498F
:10E68000085A10BD014810BD98240020FFFF00006B
:10E690003EB5044602F07CF810E001992046463170
:10E6A000FFF77EFF002806D1019920462A31FFF7A7
:10E6B00077FF002802D0684600893EBD6A4602A95D
:10E6C000072002F03BF80028E7D101483EBD0000DA
:10E6D000FFFF0000F8B50F46002804D00120FFF727
:10E6E000B5F90120F8BD397900290AD00026254D59
:10E6F00001290BD0244C022920681FD003293BD1CB
:10E7000025E001F0BBFC0121397133E0002001015B
:10E71000695C02290BD0401C80B20228F7D302208A
:10E72000FFF7AEF90120FFF791F91848F8BD040191
:10E730006019406801F094FC2E551BE0014600234F
:10E7400001221348FFF7D2F90221A18011E001F064
:10E7500087FC0C492368203149880A01094951186E
:10E760004D6825604B60A3880B810221A18005497B
:10E770008E543E710028D9D00120FFF767F90E2092
:10E78000F8BD0000482A0020102100201D1D0000B7
:10E7900038210020F8B51E4C2078002836D0E068DB
:10E7A000002600280CD00025607800282ED168466D
:10E7B00052DF052806D0002806D0FDF76FFC0BE0DD
:10E7C0000125F1E7012607E0009800F013FD21691B
:10E7D000002901D000988847002D13D160780028C7
:10E7E00014D1608869460880A06861DF052804D0DC
:10E7F000002804D0FDF752FC04E0012502E0E168A6
:10E80000A0688847002ECFD0002DE5D0F8BD0000CD
:10E8100020210020418805480288914204D3408885
:10E82000814201D801207047002070474C20002011
:10E830001048018CC9B2012917D1818C090714D164
:10E84000018D09060A0F03D1828D1206120F0ED018
:10E85000090F012903D1828D1206120F07D0032957
:10E8600003D1808D0006000F01D0002070470120E9
:10E8700070470000C00F00F00021425C002A01D068
:10E8800001207047491C1029F7D3002070478007EA
:10E8900001D00020704701207047000010B50448E7
:10E8A000017BC90702D00078FEF70AFB10BD00000B
:10E8B000F41F0020FFB5244D81B0287A1F460E4674
:10E8C000084304D0039A002E04D0002104E0052060
:10E8D00005B0F0BD1C491031019803F077FB0446E8
:10E8E000014600220198FFF7D3F8002F03D02146FC
:10E8F0000198FEF757FE112C0FD006DC002C0AD031
:10E90000082C08D00D2C05D105E0862C11D00F481D
:10E91000C44200D003242046DAE73246E978019861
:10E92000FEF718F8A978039A0198FEF713F8002467
:10E93000F1E73246E9780198FEF70CF8A978039AD6
:10E940000198FEF707F8E6E7A8200020FECFFFFFBA
:10E95000FEB517460C00064604D02078C00704D048
:10E96000012003E000217EDFFEBD02206946087120
:10E970003046FFF77DFE17490546884208D001A8BA
:10E9800000902B463A462146304600F025F806E036
:10E9900020782146C007304603D000F081F80446B5
:10E9A0000BE07EDF044600200090002C08D00022FF
:10E9B00001232946304603F023F8002C02D006E05C
:10E9C0000122F5E768460179304603F03FF820461A
:10E9D000FEBD0000FFFF0000FFB585B000252E46FC
:10E9E00001AA07210E9F089801F000FD040008D13C
:10E9F000029D4420405D1835C607F60F01D0029DE8
:10EA000034350798204312D1002D10D0002E05D1A7
:10EA100028461230FFF7B6FD002808D029462A46BE
:10EA20001231059885DF04460020387023E0002C61
:10EA300001D0052C1FD106980078C0070DD003AB7C
:10EA400001220721089801F001FD04000AD10721E5
:10EA5000089801F0F9FD040004D1069905987EDFBD
:10EA6000040008D00721089801F074FD002802D0A6
:10EA7000052800D00324002000903878002801D019
:10EA8000012300E00023002C07D0002208990598FC
:10EA900002F0B6FF204609B0F0BD0122F6E7000003
:10EAA000FEB50F46064601F09DFC05461848854216
:10EAB00020D001AB01220721284601F0C7FC040049
:10EAC0000AD10721284601F0BFFD040004D13946D0
:10EAD00030467EDF040008D00721284601F03AFDC9
:10EAE000002802D0052800D0032401200090002C2B
:10EAF0000BD002E0032400200090002201232946CD
:10EB0000304602F07DFF2046FEBD0122F6E7000000
:10EB1000FFFF0000F7B5114D0F4616462978009803
:10EB2000FDF706FF002812D00098FFF7A1FD04466C
:10EB30000B4884420BD069780098FDF7F9FE002855
:10EB400006D033463A462146009801F021FBFEBD2F
:10EB5000324639460098FEF7C7FCFEBDA4200020CF
:10EB6000FFFF0000F1B586B00698FDF7D5FE00283E
:10EB700021D06846FDF704FE00246E4618E06000D0
:10EB80008519A8880699FDF7D3FE00280FD00B4FF2
:10EB9000A888B978FDF7CCFE0590A888F978FDF72C
:10EBA000C7FE0146A8880123059AFFF783FE641C6F
:10EBB0000098A042E3D807B0F0BD0000A8200020D4
:10EBC000F0B5284C2146103948688B682278864673
:10EBD0009C46CF78667836E0182353436168521C10
:10EBE000C918A378D2B2934200D100220B78022B2D
:10EBF00002D0032B27D123E003464D68194603E0DA
:10EC0000A94204D00B46C96900291CD0F8E70029A5
:10EC100019D08B4208D1C069002805D1124F0125B7
:10EC2000BD600025AC4601270D68C969D96100297E
:10EC300009D00B685B190B6005E00174C06900E046
:10EC400000210028F9D19642C6D106496246103902
:10EC50008A604860CF70704501D00120F0BD00206F
:10EC6000F0BD0000E420002000100140F8B52C4E5B
:10EC7000044670680025009041E0002C02D0204638
:10EC8000E46920E0264818231030017842684B439D
:10EC9000491CC9B2D21801708378994200D105701D
:10ECA0001178506801292CD1017C002929D1916863
:10ECB0004160D16881601169C16051698161F178F9
:10ECC000002900D045604368B268164F991A0902BE
:10ECD000090AB94202D28268891806E0D11A0902EB
:10ECE0008268090A8A4202D9511A016000E005606F
:10ECF0004560012185600174C56103F067FB002C4C
:10ED0000BBD107481030017840788142BAD1716890
:10ED10000098814201D00120F8BD0020F8BD00001C
:10ED2000D4200020FFFF7F00FEB5044619480026CE
:10ED300084422DD02046FFF775FA050012D00B2D26
:10ED400014D0112D10D01448C5421BD0092168469B
:10ED500001702046FFF78CFC0146684641808480A4
:10ED600002950DE0022102E001260BE00321684636
:10ED700001702046FFF77CFC014668464180848094
:10ED8000FEF72AFC0548324681782046FDF7E2FD71
:10ED9000FEBD0000FFFF0000FECFFFFF5C20002053
:10EDA000FEB504460026FFF773FA0546112818D071
:10EDB00004DC002D13D00C2D05D114E0862D25D0B8
:10EDC0001348C5421BD00921684601702046FFF751
:10EDD0004FFC014668464180848002950DE0012188
:10EDE00002E001260BE0072168460170848020467E
:10EDF000FFF73EFC014668464180FEF7EDFB054803
:10EE0000324641782046FDF7A5FDFEBD0821EBE71F
:10EE1000FECFFFFF5C200020F8B5054600780C46C9
:10EE2000002620420FD10020694608706846FDF791
:10EE3000E9F92878204202D120432870012668464B
:10EE40000078FDF7FDF93046F8BD000088B00020DD
:10EE500000F0D8FD002801D0FDF720F900233C4A3E
:10EE600005211846FDF73CF9002801D0FDF716F9F9
:10EE7000384A39490320FDF7D7FF002801D0FDF7B4
:10EE80000DF969460020FDF793FE002801D0FDF73B
:10EE900005F968460078022857D0002168460171BC
:10EEA000FDF7CEFD6846007901F042FE01200146E3
:10EEB0001031684601730F2228A103A87CDF0028C7
:10EEC00001D0FDF7EBF8002400945021684601942E
:10EED0000180A0214180FF2184809131C1807ADFAF
:10EEE000002801D0FDF7DAF81948C03001F05EF8CB
:10EEF000FCF7FAFF1C216846FCF73BF90520C0032C
:10EF000001900F20000402900094032168460173D1
:10EF1000C481047415480590154806906846FDF7AD
:10EF2000BDFB002801D0FDF7B9F812A1032000F0C5
:10EF3000CFFCFDF70DF800F019FC0028FBD148DFED
:10EF40000028F8D0FDF7AAF8F5E70121A6E70000B0
:10EF50004821002025CD0100CD0C0000576F6F64C3
:10EF6000656E736861726B546573740049FC0100CF
:10EF700035D301004150503A494E464F3A446576E8
:10EF800069636520737461727465640D0A00000022
:10EF900070B5144682880E4605462088111D41181A
:10EFA000921C994201D8FE2A01D90C2070BD521C36
:10EFB00032542088FF21401C80B2208031542088A8
:10EFC000401C80B220808119288803F04CFB2188E6
:10EFD000401880B22080AA88002A09D0A968002998
:10EFE00008D08019FCF7ACF82088A9884018208048
:10EFF000002070BD072070BDF8B50F46017814469B
:10F000000546012902D16878002806D02088821C94
:10F010009A422DD8012902D006E00720F8BD697870
:10F020004118891C994223D8181A801E86B2684656
:10F0300006802188B81C081869467DDF0028EDD1BC
:10F040002878022805D169460988B14201D80921EA
:10F050000AE00821012805D16878B04202D86A4642
:10F06000108001E06846068068460088FE2801D9C5
:10F070000C20F8BD2288401CB8542088401C80B267
:10F080002080395420886946401C20800988401817
:10F0900020800020F8BD0000F8B5FF240F4605468B
:10F0A00000291FD0104EB5421CD0104801224178D3
:10F0B0002846FDF74FFC2846FFF732F80446FF28A4
:10F0C00004D1FFF749F80446FF280BD00C21484330
:10F0D00007490246401845808E5207223946001DD6
:10F0E000FCF72EF82046F8BDFFFF0000742000203A
:10F0F0009824002070B50B4D0E46A84201D1002087
:10F1000000E0401C84B209E02146304601F016FFC1
:10F11000002801D0204670BD641CA4B2FF2CF3D996
:10F12000284670BDFFFF0000C20843075B0F0120A7
:10F13000895C9840084070470121890740180068A1
:10F14000002800D00120704700280FD00849094A44
:10F15000096800BF00BF00BF00BF00BF00BF00BF05
:10F1600000BF914200D000BF401EF2D170470000A6
:10F17000342100200024F40070B50E4C00252078C6
:10F18000002801D0852513E00021A1606160216184
:10F19000E160094800680126304002D1032100F0F7
:10F1A0002FF803F0B1F8002801D1044886612670D9
:10F1B000284670BDC428002000E100E000050040A2
:10F1C00038B50020694608706846FDF71BF8084C02
:10F1D0002078002801D1FFF7CFFFE068401CE060F5
:10F1E0000120A07068460078FDF72AF838BD0000BD
:10F1F000C428002010B5002801D1FDF7EFFF10BD95
:10F200008207D30EFF229A408907090E10B5994054
:10F2100000280BDA03071B0F083B9C080C4BA400CB
:10F22000E318DC6994430C43DC6107E08408094B74
:10F23000A400E418236893430B432360C106C90E5E
:10F2400001208840044908600449086010BD00009E
:10F2500000ED00E000E400E080E200E000E100E01A
:10F26000F3B581B0054601F09FFC1F4F00282846EA
:10F2700017D0FDF771FFC0192030007F80090328E7
:10F2800002D001280BD005E018480069E840C0070B
:10F29000C00F04D00321284600F0FBF8FEBD022178
:10F2A000F9E701F08DFC0028F8D02846FDF754FF5F
:10F2B00004468000C11D0E4AF9318018026989B2E6
:10F2C000012632430261084600F014F90298002832
:10F2D000E4D02846FDF740FF800038580028DDD0F4
:10F2E0000448A6404660FEBDD82800200005005016
:10F2F0000065004000630040FEB5044625480E4608
:10F300000019202141560027C8171346401C01D080
:10F3100008273CE0F27819462046FDF7F9FE05463D
:10F32000401C33D0B07800280BD005200007A10086
:10F330000918072000020918086802229043086093
:10F3400007E000217378204600910A46019100F001
:10F350007BF8F078002810D00F48AA0010183178F8
:10F3600002690E4B1A400261E206D20C8907890B32
:10F370000A4301690A43026109E0064832784019EC
:10F380002030017F92011143017700E004273846C5
:10F39000FEBD0000D828002000650040FFE0FCFF13
:10F3A00003490969C140C807C00F00D00120704758
:10F3B0000005005070B5144D2879002801D00820B0
:10F3C00070BD114900204039421E0B182033401CEB
:10F3D000C0B21A702028F8D300242046FDF78AFE18
:10F3E000641CE4B2082CF8D303210620FFF708FFC1
:10F3F000FF207D3000F07EF801200449C0074860FE
:10F4000001202871002070BD1829002000630040F1
:10F4100002480079002800D00120704718290020F8
:10F4200070B552000A439900049D0A432902059EC3
:10F430000A43310405240A432407800007210019E8
:10F4400009024018026070BD70B552000A4399006D
:10F45000049D0A432902059E0A43310405240A43F8
:10F46000240780000721001909024018026070BDBE
:10F470000522120780008218072000021018026877
:10F4800003231B049A430260026809040A430260D2
:10F49000704705221207800082180720000210180A
:10F4A000026803231B049A430260026809040A43AA
:10F4B00002607047012282400348002901D0826027
:10F4C0007047C260704700000005005038B5084B17
:10F4D00005241B68009324026B46411805E0850053
:10F4E0005D592D192D69401C20C28142F7D838BDC5
:10F4F000F82B02000249401800210160704700000B
:10F5000000600040034940180068012800D0002036
:10F5100070470000006000400048704745F501005A
:10F5200070B5074D04462878002802D068788442D8
:10F5300004D0FBF7EDFF012028706C70002070BD37
:10F540001A210020F0B5C5B01746002208460092E7
:10F550004D994B9A1E4651180391002801D00A215B
:10F5600000E0002104AD0191002E15D16A46294624
:10F5700002F0B0FF002870D03846FBF705FEC22825
:10F5800000D9C22004460098224628183946FBF7C5
:10F59000D7FD009800190090009A0198111804A84E
:10F5A000841831314518002003E020212170401CCF
:10F5B000641C01998842F8D300270398864207D338
:10F5C000202020706070A0702870E41C6D1C2CE05E
:10F5D0004B98864202D24A98805D02E0311A4C98DC
:10F5E000405C22468446012102908B006046D84050
:10F5F0000007000F092801D9373000E0303001231F
:10F600005B1AD054491EF0D220209070D41CFBF716
:10F6100093FD01680298085C8006C00E01D0029834
:10F6200000E02E2028706D1C761C7F1C102FC4D388
:10F630000D2028700A206870202020700099019801
:10F640000918433104A8009102F032FA002804D0CE
:10F6500000200090039886429ED3304645B0F0BD0E
:10F66000FFB5C7B008460025509F06AE1C46314680
:10F6700005AA059502F02EFF002836D03846FF2750
:10F6800001370300FCF794F80705131B333F4B5772
:10F6900025004998FBF778FD059905464018FF2895
:10F6A00017D870182A464999FBF74AFD11E00598CA
:10F6B0002368391A3018499AFCF760F808E0606846
:10F6C000009005982368391A3018499AFCF756F8C3
:10F6D0000546294605A8FDF7BBFC0599002839D049
:10F6E000B94237D806A802F0E3F94BB0F0BDA168E3
:10F6F00060680090019105982368391A3018499A7A
:10F70000FCF73CF8E4E7201D07C86B4607C30598E3
:10F710002368391A3018499AFCF730F8D8E7201DC9
:10F720000FC86D460FC505982368391A3018499AD5
:10F73000FCF724F8CCE7204608300FC801AD0FC510
:10F740006068009005982368391A3018499AFCF7C8
:10F7500015F8BDE70020C8E70048704761F60100D2
:10F7600010B50120FFF7DCFE10BD0000F0B595B02C
:10F77000FDF7B0FC002802D0002015B0F0BD4B48CA
:10F780004468866821463140890009180C94CD6888
:10F790000BE02904A80D890D4018041920463040BB
:10F7A000810042480C940818C568641CA807F0D072
:10F7B00000200890A807800F3D4B022807D0AA0A16
:10F7C000A805000F84460EA99646002059E0204661
:10F7D000304081003548641C0818C068049486468F
:10F7E0002804800D84463440301B8000AF0D001D7E
:10F7F000874222D92D490C31002807D02B4AA4007A
:10F80000A21814460C34C2B2381A03E00C46002188
:10F81000FAB20846C0B20390019202910094A80681
:10F820005C69400F634672460899A047B84213D1FD
:10F83000FF1C0498B9080C1830E01C48A2001018EE
:10F8400000210C300090029101970391A8065C6999
:10F85000400F63467246E8E7164980050D40000CEC
:10F8600005430C983040810010480818C56017E027
:10F8700027463740BA000D4F401CD719FF68641C5B
:10F8800080C167466045F3D3A80600971D69400F05
:10F890000EAB72460899A847002801D0034844607F
:10F8A000FDF718FC0121484067E70000E02A00202E
:10F8B000E02E00203F00FFFF00B5044AFF239360C5
:10F8C00000231360536000F097F800BDE02A002089
:10F8D000F8B5104D0E46074600206946AC68FDF7A6
:10F8E000C1FB002815D00C483C218088884379074B
:10F8F000890E08430F21890188438105890DB002D3
:10F90000014300980246224092005219401CD160E7
:10F910000090F8BDE02A0020182C0200F7B5154C25
:10F9200082B00E46074601206946A568FDF79AFB9E
:10F9300000281CD010483C21008988437907890E93
:10F9400008430F2189018843402108438105890D1F
:10F95000B0020143009802462A4092001219D16079
:10F96000401C00902840800000190499C16005B037
:10F97000F0BD0000E02A0020182C0200FFB51C4C4E
:10F9800081B00F46164603206946A568FDF76AFB5D
:10F9900000282AD017483C21008A8843019949074A
:10F9A000890E08430F2189018843C021084381053E
:10F9B000890DB8020143009802462A4092001219AC
:10F9C000401CD1600146401C2940024689000919AB
:10F9D0002A40CE60920012190499401CD160009018
:10F9E0002840800000190A99C16005B0F0BD0000F0
:10F9F000E02A0020182C0200014A51611061704772
:10FA0000E02E002070B506460020FFF789FD0400B7
:10FA100008D1FFF781FD0546FFF79EFE32462946D5
:10FA2000FFF74AFF204670BD4058002800D0012053
:10FA300070470322120280184068084000D001205D
:10FA40007047000010B500280BD0032808D10FA183
:10FA5000FFF73EFF0220FDF7D9F914E0FCF71EFB8B
:10FA600010BD11A10320FFF733FF0020FDF7CEF9F1
:10FA7000002801D0FCF712FBFDF7F6F8002801D0B2
:10FA8000FCF70CFB3CDF0028E8D110BD4150503A98
:10FA9000494E464F3A4661737420616476657274CC
:10FAA0006973696E670D0A004150503A494E464FDE
:10FAB0003A534C4545500D0A0000000010B504466D
:10FAC000008888B03A2829D00DDC02282CD01028D4
:10FAD00015D0112811D125A10320FFF7F9FE002030
:10FAE000FDF794F91DE0512822D0552805D1A088B2
:10FAF000132176DF15E0FCF7D1FA08B010BD22A182
:10FB00000320FFF7E5FE0720FDF780F9002801D06C
:10FB1000FCF7C4FA2249A0880880EEE7A0881321E8
:10FB200076DF0028E7D1E8E7A088002167DFF8E763
:10FB30001022A11D04A8FBF703FB6846017C0029E5
:10FB4000DBD0007E042803D0062801D00528D4D1BC
:10FB5000022908D0012069460870FF208330888080
:10FB6000A088A8DFDDE70220F5E700004150503A09
:10FB7000494E464F3A446973636F6E6E65637465B0
:10FB8000642E0D0A000000004150503A494E464F85
:10FB90003A436F6E6E65637465642E0D0A00000053
:10FBA000E81F00200EB5CA88838900219A4210D12F
:10FBB00001236A461380518002A90191818900883E
:10FBC000A5DF6A46107A002800D0012000F0E4F991
:10FBD0000EBD03899A42FBD102236A4613805180ED
:10FBE00002A9019101890088A5DF6A4610890128D0
:10FBF00006D00028ECD103A10320FFF769FE0EBD5B
:10FC000009A1F9E75356433A494E464F3A4E6F74AD
:10FC1000696669636174696F6E2064697361626C9F
:10FC200065640D0A000000005356433A494E464FA2
:10FC30003A4E6F74696669636174696F6E20656EB0
:10FC400061626C65640D0A0010B50078002807D168
:10FC500004483B21008876DF002801D0FCF71EFA1B
:10FC600010BD0000E81F002010B5134A002151709C
:10FC7000017A012911D002290ED18189491C818183
:10FC8000C189491C89B2C181028A914204D10021F3
:10FC900001F0EAFE01F01EFB10BD838AC28A991AA8
:10FCA000FF2901DC89B201E0FF210131511889B23D
:10FCB000C1829942EBD010BD18210020F7B51C4D30
:10FCC0000E4601466A6F002082B0032A2DD82C46CA
:10FCD00078340827636CBF1BBB4226D8286F1018E6
:10FCE0008007800F1C2250434019FBF729FA686FE8
:10FCF000401C6867002E17D0216C606C40184007CC
:10FD0000800E00190023009009E00498D9000A1819
:10FD100006CA009806C06846FDF736FA5B1CB34277
:10FD2000F3D3606C80196064012005B0F0BD000061
:10FD30008829002010B502880C4B86B09A4212D058
:10FD400004226B461A8200220092019202920392D0
:10FD500084881C8001249C709A8004AA03910292DA
:10FD600000886946A6DF06B010BD0000FFFF000056
:10FD7000F0B5564A04460FCA97B00FAD0FC5C02163
:10FD8000684681860FA80DAD811F63DF1C2105A881
:10FD9000FBF7EFF96846017D022000260143701C45
:10FDA0000207120F08A810320E960276701C020786
:10FDB000120F08A810324276827EF9273A40921C30
:10FDC00082760EA80A90102001436846017508A8A3
:10FDD0000C96817C3940891C81740120014608A859
:10FDE0001031017414216846FBF7C3F90CA80421F3
:10FDF0000190009568468181018114A814960490B1
:10FE00006088231D6A4605A9A2DF061E01D0FCF703
:10FE100045F9A2882EA10320FFF780FD228937A192
:10FE20000320FFF77BFDD02069468886A91C0FA818
:10FE300063DF300001D0FCF731F91C2105A8FBF786
:10FE400098F96846017D0A200143EF200026014011
:10FE500068460A96017508A80C96817C3940891C71
:10FE60008174701C0107090F08A81031017401206A
:10FE7000014608A81031417414216846FBF779F94E
:10FE80000CA801210190009568468181018115A887
:10FE900015960490234660880C336A4605A9A2DFB4
:10FEA000002801D0FCF7FAF8A2891FA10320FFF770
:10FEB00035FD228A26A10320FFF730FD62882EA19E
:10FEC0000320FFF72BFD002017B0F0BD342B0200FC
:10FED0005356433A494E464F3A425554544F4E5367
:10FEE00020636861722076616C75652068616E645C
:10FEF0006C653A202523780D0A0000005356433ADA
:10FF0000494E464F3A425554544F4E532063686110
:10FF10007220636363642068616E646C653A2025B7
:10FF200023780D0A0D0A00005356433A494E464FB6
:10FF30003A4C45445320636861722076616C756564
:10FF40002068616E646C653A202523780D0A0000F4
:10FF50005356433A494E464F3A4C45445320636802
:10FF6000617220636363642068616E646C653A202B
:10FF70002523780D0A0D0A005356433A494E464F41
:10FF80003A536572766963652068616E646C653AA0
:10FF9000202523780D0A000010B5002801D0142078
:10FFA00000E01320FCF732FF10BD000010B5104B2D
:10FFB00004460FCB86B003936B4607C3E020694627
:10FFC00008821231684663DF002801D0FCF766F82A
:10FFD0000020C0432080A21C04A90120A0DF00282B
:10FFE00001D0FCF75BF82046FFF7C2FE06B010BD5B
:10FFF000442B02000389CA1C9A1802814289511AB3
:020000040002F8
:10000000C91E418170470000F7B50D4601218902E4
:1000100047180446002608340220288012E02046B3
:10002000FEF7C2F9002817D00C48A1684268914237
:1000300000D94160608881000C1929880818C01C0B
:1000400028800C34BC4202D22068401CE7D10298C0
:10005000002800D00670FEBD0126EBE7002100203D
:1000600008B50021009101460223024A0248FDF72B
:10007000E3FD08BD102C02003821002008B5002047
:100080000090044802230168034A0448FDF7D4FDA8
:1000900008BD000010210020082C0200382100209B
:1000A000F8B50025354F2C462E4600953448B10250
:1000B000006840180168B94205D1324A4168891880
:1000C00030D001290CD000218A0082580346521CEE
:1000D00036D003202C4922018854641CA4B21BE0B2
:1000E000009900290CD0284B022221015A54274A9A
:1000F0001368254A891802224B60641C0A81A4B245
:10010000224900220860091DFFF77EFF1F488088F2
:10011000022831D008200543761CB6B2032EC5D381
:10012000E8B2F8BD1849002322018B5451180A4641
:1001300048600E320831FFF767FF02200543CCE725
:10014000491CFF29C0D911490A68002A0CD00E4A5F
:1001500002212301D1549A1850600B48118120309C
:100160004480641CA4B204E002200B60888001205B
:10017000009001200543CFE70420CCE7DEC0ADDED0
:100180003821002002FEE10E482A00201021002024
:1001900070B5184D0E46044623CD86B002950090EA
:1001A00001916846448082808371134D2046A9786E
:1001B000FCF7BEFB002803D03046FEF743FA0FE001
:1001C0000721304600F0C6F9002809D0052807D1DC
:1001D000092269460A73CC81049003A8FDF724FA2A
:1001E000002229782046FCF7B5FB6846FDF71CFA8B
:1001F00006B070BDDC2B0200A4200020F0B585B055
:100200000746FCF789FB002814D06846FCF7B8FACB
:1002100000246D460BE060004619B0883946FCF7B3
:1002200087FB002802D0B08801F070FF641C0098A2
:10023000A042F0D805B0F0BD70B5054D06460024CB
:10024000A000295830468847641C052CF8D370BD9F
:100250009C2B02003EB50F4D002414206043401932
:1002600002F00EFB641C082CF7D3082150200191EA
:100270000A490124C2000290074B0094881800F03C
:10028000DAFC002801D003203EBD03484470002062
:100290003EBD0000982700208C200020082500206B
:1002A00010B500F043FA10BD10B500F043FA10BDD0
:1002B000F0B5002585B0009501950295039504469B
:1002C000418868464180217901712E4621796088F4
:1002D00002F0B0FA22780421404F1300FBF768FACD
:1002E0000A0606361C1C383E43484B4D00280DD0EC
:1002F000417CC9070AD002F0D5FA6846067020781A
:10030000012800D00020694608722AE001206946D1
:100310000870A068029024E000280ED08268A368CC
:100320009A420AD1427CD30707D07B6852085B1CF3
:1003300052000A437B6042741FE002206946087045
:10034000E06803900DE0FFF777FF16E0032006E07A
:1003500068460170E06802906846F4E70520694647
:1003600008700846EFE7062069460870E068D1E7A4
:1003700001250720F3E7E06802907868002824D080
:10038000174E0024142027464743B819417C4A07DA
:1003900003D48907C90F29421CD08178F05B00F093
:1003A000EFF8002816D014214C43325B69464A808E
:1003B000B9198A7869460A71862808D009216A46DF
:1003C000117002906846FFF737FF05B0F0BD0820B6
:1003D0000870F7E7641C082CD4D3F6E78C200020C3
:1003E0009827002010B500F069FA10BD10B5002361
:1003F00000F0D6F910BD38B50546002420460AE0C5
:100400008178284600F0A6F8002802D0052800D000
:1004100003240098401C00906946284602F01CFA0C
:100420000028EDD1002C07D1284600F04FFA002813
:1004300002D0072802D00324204638BD0724FBE75A
:1004400010B51346002200F0E3F910BDFFB581B0EE
:10045000049815460E46002804D0072E05D0082E15
:1004600019D102E00E2005B0F0BD002D13D0082DEB
:1004700011D8019800F035FA00280CD00020009027
:100480003146019802F0D6F9041E26D0E068A84251
:1004900012D2002709E00720E5E7207CC019C1B28D
:1004A0002A4800F000FC7F1CFFB2E068B842F4D894
:1004B000204602F0E5F910E0A84217D9EFB207E0B4
:1004C000207CC019C1B2214800F0EDFB7F1CFFB2B7
:1004D000E068B842F4D8002C08D1FF211C48019FE5
:1004E00002F0A8F9041E05D00780A670207CFF2822
:1004F00002D00AE01120B6E72946144800F06CFB50
:100500002074FF2813D001200090E560217C0F4863
:1005100000F0B2FB02000ED0ABB23146049800F0FE
:1005200071FA009800280FD0082E06D00CE0204663
:1005300002F0A6F9DEE7032095E704980499008805
:1005400049688000801F888000208CE78827002071
:10055000FFFF000070B5002402F06CF905000CD01C
:100560006868002804D000F0D8F9040000D0032403
:10057000284602F097F9204670BD052070BD0000A6
:100580007CB50D460646072903D0082D01D007206B
:100590007CBD002000900190684685702946304659
:1005A00002F048F9040004D0607CC00703D00020AA
:1005B0007CBD05207CBD217C214800F05DFB020054
:1005C00025D029466846E36800F0AFF9684602F096
:1005D0001FF92346083369463046626800F018F96F
:1005E0000246607C1749430704D5830702D54B6850
:1005F0005B1E4B60FB25FD23002A0AD0112A0DD07B
:10060000862A14D0072A00D0032210467CBD03207E
:100610007CBD01210843284018400EE04A68521C66
:100620004A6004210843184060740022EDE74B68DB
:1006300028405B1C4B60022108436074E5E7000022
:10064000882700208C2000207CB50D46072903D088
:10065000082D01D007207CBD002602F0EBF8040035
:1006600003D06068002802D01BE005207CBD217CFF
:100670000E4800F001FB0246002000900190684601
:100680008570002A0FD02946E36800F04EF96846CD
:1006900002F0BEF8211D684600F027F90646092839
:1006A00001D030467CBD03207CBD0000882700209F
:1006B0000149096808470000982B020070B588B00E
:1006C0001748FDF761F9002802D0032008B070BD7B
:1006D000FDF796F8002801D08620F7E700F0E8F94A
:1006E0000020104C0290E61F03900DE0694604A81C
:1006F000FDF70EF900988088801B85B204A8FDF7ED
:10070000C5F8284600F088F902AA04A92046FDF79A
:10071000E4F80028EAD00449012008700020D5E759
:1007200051D6010007C000008020002010B500F065
:100730009DF910BD10B500F0A1F910BD70B50546CA
:100740000320800386B014460E46281880B20F4A54
:100750006946FDF7C2F8002805D103A96846FDF7F0
:10076000D7F8002802D0002006B070BDA57003980D
:10077000408820800498606003988088FDF754F9D1
:1007800030806846FDF782F80120EDE784200020E4
:1007900002480021416081607047000080200020F5
:1007A000F0B587B01D46144607460E46FF280CD804
:1007B000084600F017F9002807D003AA314638464A
:1007C00000F0F8F8002809D102E0072007B0F0BDDA
:1007D00001A903A8FDF79CF8002801D00520F5E742
:1007E000A6700198002D408820800AD082002868D9
:1007F000904204D802996068FAF7A2FC03E0042052
:10080000E4E70298606003A8FDF740F80020DDE708
:100810007FB588B01D460C460646FF2831D8A07823
:1008200000F0E0F800282CD0606806902088694627
:100830008883304600F076F969460880A078032165
:10084000890340186946488006A801900120088164
:10085000A17803AA304600F0ADF8052813D00AA805
:10086000FDF7BEF8694603A8FDF774F8002818D014
:10087000072820D008281CD00E281AD003200CB03E
:1008800070BD0720FBE70A98002805D00AAA694630
:1008900003A8FDF76FF8E9E7694603A8FDF764F8D8
:1008A000E4E7002D03D0294603A8FDF726F8002031
:1008B000E5E71120E3E78620E1E7000010B50248F4
:1008C00000F0AAF810BD0000FFFF000010B5FF28DF
:1008D00001D9072010BD00F0A7F800F02BF8002088
:1008E00010BD10B500F0F8F810BD70B504460D4607
:1008F000807800F077F800280BD021882846FDF793
:1009000055F8002804D0072805D0092800D0032076
:1009100070BD072070BD862070BD01B56846FDF72B
:100920005FF8002800D0032008BD10B59BB200F08E
:1009300069F810BDF0B589B000261C4F0496384602
:10094000059603E0204600F083F8204600F08EF87C
:100950000446B84207D000F0E5F804AA06A9FCF75F
:10096000C4FF0A28EED0124DA878002819D1BC4245
:1009700017D00320800301272018AF7080B2FCF746
:10098000F5FE08280FD000280BD0AE70092269466A
:100990000A704C80FF220A71039002966846FFF7A6
:1009A00087FE09B0F0BD6F70FBE70000FFFF00009D
:1009B000802000207CB5054616460C46084600F00F
:1009C00011F8002003210090890301906818611834
:1009D00080B289B26B463246FCF778FF002800D01F
:1009E00005207CBD07280BD0012809D0082807D096
:1009F000052805D0062803D0042801D00020704720
:100A00000120704710B5502463439BB28170DB1CFA
:100A100099084260018010BD10B50249FCF7C0FB87
:100A200010BD00003828002010B504460648844256
:100A300007D006492046FCF7B3FBA04201D10120B4
:100A400010BD002010BD0000FFFF0000582800204E
:100A500010B50446044900F033FE03492046203116
:100A600000F02EFE10BD00003828002010B502490D
:100A7000FEF740FB10BD00005828002070B50A4961
:100A8000FEF738FB0446094D08E000F031F8002875
:100A900007D005492046FEF72DFB0446AC42F4D1B1
:100AA00070BD204670BD000038280020FFFF000008
:100AB00010B508484021FAF75CFBFF2401342146B9
:100AC000044800F00BFA03482146203000F006FAF3
